:020000040000FA
:100000003C28F930F0000000F00B03280800F10054
:100010000120F10B08280800081501200811012013
:100020000800F500F0398800F41888140C2001202D
:10003000F50E7508F0398800F41888140C2001209A
:10004000080064300720F030F400303088000C20C5
:10005000053007200C2001200C2008120C2028302D
:10006000112008301120013011200630112080307D
:1000700011200C3011200800A601A701A401A30142
:100080008312031307138717831603132530990070
:1000900083120313903098008316031320309800C6
:1000A0008312831603130811831203135F20692040
:1000B00023080319732824080319732881208C1E30
:1000C0005F28831203131A08A40083120313081174
:1000D00008008C1E6928831203131A08A3008312D8
:1000E000031308150800831203132708990007203B
:1000F00007208312031326089900831203130811A3
:100100008C282408A601A7018528A6070318A70A9A
:10011000A30B852827087328A601A701A401A30122
:02400E00313748
:00000001FF
