:020000040000FA
:020000005C287A
:080008000528831203130B1DF0
:100010001B280B201528831203130B11A50A20306F
:100020002502031D152808290800831203138B16C7
:100030000B168B170900831203138B10E3200B168A
:100040000900F930F0000000F00B23280800F1004F
:100050002120F10B28280800081521200811212053
:100060000800F500F0398800F41888142C202120AD
:10007000F50E7508F0398800F41888142C2021201A
:10008000080064302720F030F400303088002C2045
:10009000053027202C2021202C2008122C2028304D
:1000A00031200830312001303120063031208030BD
:1000B00031200C3031200800831203138B13A5016B
:1000C000A601A701B201A901B101B001B301B401B8
:1000D000B501B601C101C201A8018316031388014D
:1000E0008316031306143030A000A200A100A30061
:1000F0008312031307138717831603132530990000
:100100008312031390309800831603132030980055
:100110008312031327204120831203130C2227206C
:1001200027200C22272027200C2227202720982850
:10013000A001A101A201A301A501A601A701A90196
:10014000B001B101B201B301B401B501B601B7010B
:10015000B801B901C001C101C201C301A801C401B4
:10016000C5014A228316031307308100831203134B
:100170008101831203138B168B17B82A8312031382
:1001800029089900272027208312031323089900A8
:1001900022080319CF2829080319CF28A729C2014B
:1001A000831203138C1ECF28831203131A08C20074
:1001B000D928C101831203138C1ED928831203137B
:1001C0001A08C100D829A501A70101302802031D82
:1001D000EA28982800302602031DEF28162901304E
:1001E0002602031DF4282F2903302602031D0329AC
:1001F0004829F410C5303120F4143D303120A70ACD
:100200009A229B29080004302602031D082961292F
:10021000A5019621A60A02302602031D11296F2A84
:10022000152805302602031D1528F928831203130B
:10023000A00A20080A3A03192629C0303120F414F4
:100240002008303E3120F4147A210800A001C0308B
:100250003120F41430303120F4147A210800831254
:100260000313A10A21080A3A03193F29C13031209A
:10027000F4142108303E3120F4147E210800A1013D
:10028000C1303120F41430303120F4147E210800C4
:1002900083120313A20A22080A3A03195829C33009
:1002A0003120F4142208303E3120F4148621080055
:1002B000A201C3303120F41430303120F4148621EF
:1002C000080083120313A30A23080A3A03197129A9
:1002D000C4303120F4142308303E3120F4148A2134
:1002E0000800A301C4303120F41430303120F4145C
:1002F0008A210800F410C03031200800F410C13009
:1003000031200800F410C23031200800F410C3304E
:1003100031200800F410C43031200800F4101430EB
:1003200031200800F410C6303120080001302702C7
:10033000031D8E2992290A30B2002008A901A029A4
:10034000A907B20BA0292108A907B201BE280A30CB
:10035000B2002208C301AC29C307B20BAC29B029F3
:100360002908B001B101B429B0070318B10AC30BC1
:10037000B429CF28F410C6303120F4143308303EAD
:100380003120F410C7303120F4143408303E3120CD
:10039000F410C8303120F4143508303E3120F41008
:1003A000C9303120F4143608303E3120A80A080044
:1003B00031084207C40730084107C5000318C40AC2
:1003C000E221BA29B601B501B401B3014508031908
:1003D000052AC503B60AEE21E62908000A303602CE
:1003E000031D0800B601B50AF62108000A303502DF
:1003F000031D0800B501B40AFE2108000A303402CA
:10040000031D0800B401B30A080044080319ED29CC
:10041000FF30C500C403EA29F4100F303120F41472
:1004200057303120653031206C303120633031203D
:100430006F3031206D303120653031202030312057
:10044000743031206F303120F410C0303120F4147A
:100450006D303120753031206C30312074303120D6
:1004600069303120703031206C30312069303120DA
:1004700063303120613031207430312069303120D7
:100480006F3031206E303120F414272027202720B0
:10049000B0220800B022F41080303120F4144E3025
:1004A0003120753031206D3031206230312065309F
:1004B0003120723031202030312031303120F410A1
:1004C000C0303120F41420082002303E3120F414D2
:1004D00021082102303E3120F4147A210800F41062
:1004E000C2303120F41458303120F41080303120E3
:1004F000F4144E303120753031206D3031206230AF
:1005000031206530312072303120203031203230BE
:100510003120F410C3303120F41422082202303E7E
:100520003120F41423082302303E3120F4148221B8
:10053000F4280800F41080303120F41452303120B7
:100540004530312053303120553031204C3031206E
:10055000543031202030312020303120F414080074
:1005600083120313F41001303120023031200800CF
:08057000831203132720B82AAF
:02400E00313748
:00000001FF
